{
  "_format": "hh-sol-artifact-1",
  "contractName": "SimpleStorage",
  "sourceName": "contracts/simple-storage.sol",
  "abi": [
    {
      "inputs": [],
      "stateMutability": "nonpayable",
      "type": "constructor"
    },
    {
      "anonymous": false,
      "inputs": [
        {
          "indexed": false,
          "internalType": "string",
          "name": "message",
          "type": "string"
        }
      ],
      "name": "MessageUpdated",
      "type": "event"
    },
    {
      "anonymous": false,
      "inputs": [
        {
          "indexed": true,
          "internalType": "address",
          "name": "owner",
          "type": "address"
        }
      ],
      "name": "OwnerSet",
      "type": "event"
    },
    {
      "anonymous": false,
      "inputs": [
        {
          "indexed": false,
          "internalType": "uint256",
          "name": "newValue",
          "type": "uint256"
        }
      ],
      "name": "ValueUpdated",
      "type": "event"
    },
    {
      "inputs": [],
      "name": "getValue",
      "outputs": [
        {
          "internalType": "uint256",
          "name": "",
          "type": "uint256"
        }
      ],
      "stateMutability": "view",
      "type": "function"
    },
    {
      "inputs": [],
      "name": "message",
      "outputs": [
        {
          "internalType": "string",
          "name": "",
          "type": "string"
        }
      ],
      "stateMutability": "view",
      "type": "function"
    },
    {
      "inputs": [],
      "name": "owner",
      "outputs": [
        {
          "internalType": "address",
          "name": "",
          "type": "address"
        }
      ],
      "stateMutability": "view",
      "type": "function"
    },
    {
      "inputs": [
        {
          "internalType": "string",
          "name": "_message",
          "type": "string"
        }
      ],
      "name": "setMessage",
      "outputs": [],
      "stateMutability": "nonpayable",
      "type": "function"
    },
    {
      "inputs": [
        {
          "internalType": "uint256",
          "name": "_value",
          "type": "uint256"
        }
      ],
      "name": "setValue",
      "outputs": [],
      "stateMutability": "nonpayable",
      "type": "function"
    }
  ],
  "bytecode": "0x6080604052348015600e575f5ffd5b50600180546001600160a01b031916339081179091556040517f50146d0e3c60aa1d17a70635b05494f864e86144a2201275021014fbf08bafe2905f90a261054f806100595f395ff3fe608060405234801561000f575f5ffd5b5060043610610064575f3560e01c8063552410771161004d57806355241077146100925780638da5cb5b146100a5578063e21f37ce146100ea575f5ffd5b80632096525514610068578063368b87721461007d575b5f5ffd5b5f546040519081526020015b60405180910390f35b61009061008b3660046102c5565b6100ff565b005b6100906100a0366004610378565b61019e565b6001546100c59073ffffffffffffffffffffffffffffffffffffffff1681565b60405173ffffffffffffffffffffffffffffffffffffffff9091168152602001610074565b6100f2610225565b604051610074919061038f565b60015473ffffffffffffffffffffffffffffffffffffffff1633146101575760405162461bcd60e51b81526020600482015260096024820152682737ba1037bbb732b960b91b60448201526064015b60405180910390fd5b6002610163828261045e565b507f8fae638bf5c6396194a6bb16601c4035a07fa48191638ff4102f0d96f14cfefb81604051610193919061038f565b60405180910390a150565b60015473ffffffffffffffffffffffffffffffffffffffff1633146101f15760405162461bcd60e51b81526020600482015260096024820152682737ba1037bbb732b960b91b604482015260640161014e565b5f8190556040518181527f4273d0736f60e0dedfe745e86718093d8ec8646ebd2a60cd60643eeced56581190602001610193565b60028054610232906103da565b80601f016020809104026020016040519081016040528092919081815260200182805461025e906103da565b80156102a95780601f10610280576101008083540402835291602001916102a9565b820191905f5260205f20905b81548152906001019060200180831161028c57829003601f168201915b505050505081565b634e487b7160e01b5f52604160045260245ffd5b5f602082840312156102d5575f5ffd5b813567ffffffffffffffff8111156102eb575f5ffd5b8201601f810184136102fb575f5ffd5b803567ffffffffffffffff811115610315576103156102b1565b604051601f8201601f19908116603f0116810167ffffffffffffffff81118282101715610344576103446102b1565b60405281815282820160200186101561035b575f5ffd5b816020840160208301375f91810160200191909152949350505050565b5f60208284031215610388575f5ffd5b5035919050565b602081525f82518060208401525f5b818110156103bb576020818601810151604086840101520161039e565b505f604082850101526040601f19601f83011684010191505092915050565b600181811c908216806103ee57607f821691505b60208210810361040c57634e487b7160e01b5f52602260045260245ffd5b50919050565b601f82111561045957805f5260205f20601f840160051c810160208510156104375750805b601f840160051c820191505b81811015610456575f8155600101610443565b50505b505050565b815167ffffffffffffffff811115610478576104786102b1565b61048c8161048684546103da565b84610412565b6020601f8211600181146104be575f83156104a75750848201515b5f19600385901b1c1916600184901b178455610456565b5f84815260208120601f198516915b828110156104ed57878501518255602094850194600190920191016104cd565b508482101561050a57868401515f19600387901b60f8161c191681555b50505050600190811b0190555056fea264697066735822122025b6215636a885a0df19728208656ac5634edb83a4d81666f1570140e615dd2b64736f6c634300081b0033",
  "linkReferences": {},
  "deployedLinkReferences": {}
}